:020000020000FC
:1000000075C0189518951895189518951895AFC03E
:10001000029728F4C098C50101965C011895C09A12
:10002000C50100E080379007B0F3C50101E0853BD2
:100030009007D0F0C50101965C0102E08D30900779
:1000400060F0AA24BB24C5010F2D053A31F0E394DA
:100050000E2D0E3119F40FE7088318950C33EAF3CF
:10006000EE2400E2088318951D012F012D3068F061
:1000700022271395193129F4112700E6C02EDD241B
:1000800004C008E2C00E0027D01EF5E0E22F09945C
:10009000F0E10DC0F1E10BC0F2E109C0F3E107C0EE
:1000A000F4E105C0F5E103C000000000F6E1D6016F
:1000B00034E1ED9144914295ED910491402B0CB5C2
:1000C0000D30E8F3BB9A4FB900000000ED91449168
:1000D0004295ED910491402B3A95A9F7BB98239551
:1000E000C50101965C01D101F20118950FE50DBF24
:1000F00004E00EBFA59AAD9AB89AB99ABA9ABD9A79
:10010000C09AC19A00E50DB9709A02EC0FBD0AE1E0
:100110000EBD0FE3112717BD06BD0DE3112719BD55
:1001200008BD07E01BBD0ABD0CE009BF00E805BF24
:10013000E0E0FCE0C0E6D0E0A8EEB3E00591099372
:100140001197E1F71127222700E6C02EDD24AA240B
:10015000BB24C501AD98AD9AFF24EE24789400002D
:10016000999BFDCF50B3AD98AD9A08D0F8CF9FB60C
:10017000602E78948895062D9FBE1895503858F0BB
:100180005F93507E503E21F15F915F93507C5038D9
:1001900051F15F910895503290F45D30C1F15A30C1
:1001A00069F0583049F1553069F0513049F0533019
:1001B00051F0543051F0523021F0089534C035C020
:1001C0004BC05CC03CC0FF24089505EAF02E0895A2
:1001D0005F91752F5F7108E2509FC0E6D0E0C00DBF
:1001E000D11D662708955F915F73C61BD040652FB0
:1001F00000E0C60FD01F0895613009F4089505EAA4
:10020000F02E00E208836A950A93FF2408957395FF
:10021000793111F1072F58E2059FC0E6D0E0C00DFB
:10022000D11D66270895F3CF0895599363956832D9
:1002300029F460E07395793109F40EC00895C0E6A1
:10024000D0E0A8EEB3E000E209931197E9F7C0E629
:10025000D0E0662777270895C0E6D0E0E8E8F0E030
:1002600001910993E834E1F7F430D1F700E2099302
:0E027000C834E9F7C0E278E160E0089508952F
:100A000053CB46CB45CB46CB45CB46CB45CB46CB54
:0A0A100045CB46CB45CB46CB45CB8A
:100C000020202020202020202020202020202020E4
:100C100020202020202020202020202020202020D4
:100C200020202020202020202020202020202020C4
:100C300020202020202020202020202020202020B4
:100C400020202020202020202020202020202020A4
:100C50002020202020202020202020202020202094
:100C60002020202020202020202020202020202084
:100C70002020202020202020202020202020202074
:100C80002020202020202020202020202020202064
:100C90002020202020202020202020202020202054
:100CA0002020202020202020202020202020202044
:100CB0002020202020202020202020202020202034
:100CC0002020202020202020202020202020202024
:100CD0002020202020202020202020202020202014
:100CE0002020202020202020202020202020202004
:100CF00020202020202020202020202020202020F4
:100D000020202020202020202020202020202020E3
:100D1000202020202020202020202020207F7F7FB6
:100D2000207F7F7F7F207F7F7F7F202020207F7F0D
:100D30007F207F7F7F7F207F7F7F7F20202020205C
:100D4000202020207F202020207F202020207F2086
:100D500020207F20207F202020207F202020207F17
:100D60002020207F20202020202020207F202020C5
:100D7000207F202020207F2020207F20207F2020F7
:100D800020207F202020207F2020207F2020202046
:100D900020202020207F7F7F207F7F7F7F207F7FFC
:100DA0007F7F203D3D207F7F7F207F7F7F7F207F53
:100DB0007F7F7F2020202020202020202020202016
:100DC0007F7F202020207F2020207F2020202020A7
:100DD000207F7F202020207F2020207F2020202097
:100DE00020202020202020207F7F202020207F20E6
:100DF00020207F2020202020207F7F202020207F77
:100E00002020207F20202020202020207F7F7F7F07
:100E1000207F7F7F7F207F7F7F7F2020207F7F7FBD
:100E20007F207F7F7F7F207F7F7F7F20202020206B
:100E300020202020202020202020202020202020B2
:100E400020202020202020202020202020202020A2
:100E50002020202020202020202020202020202092
:100E60002020202020202020202020202020202082
:100E70002020202020202020202020202020202072
:100E800020202020202020202028432920204C61C1
:100E90006F7561722020204D61686D6F7564202030
:100EA0002020202020202020202020202020202042
:100EB0002020202020202020202020202020202032
:100EC0002020202020202020202020202020202022
:100ED0002020202020202020202020202020202012
:100EE0002020202020202020202020202020202002
:100EF00020202020202020202020202020202020F2
:100F000020202020202020202020202020202020E1
:100F100020202020202020202020202020202020D1
:100F200020202020202020202020202020202020C1
:100F300020202020202020202020202020202020B1
:100F400020202020202020202020202020202020A1
:100F50002020202020202020202020202020202091
:100F60002020202020202020202020202020202081
:100F70002020202020202020202020202020202071
:100F80002020202020202020202020202020202061
:100F90002020202020202020202020202020202051
:100FA0002020202020202020202020202020202041
:100FB0002020202020202020202020202020202031
:100FC0002020202020202020202020202020202021
:100FD0002020202020202020202020202020202011
:080FE000202020202020202009
:101000000F0F0F0F0F0F0F0F0F0F0F0F0F0F0F0FF0
:101010000F0F0F0F0F0F0F0F0F0F0F0F0F0F0F0FE0
:101020000F0B05050907030B0D07050F0F0F0F0D1C
:10103000090B03030501090101010F0F0D0F070142
:101040000B0B03090301010905010D050705050B3C
:10105000030B030901050505050501010F010B0F30
:10106000070F070F0D0F0D0F070B0D07030F0F0FC6
:101070000F0F0F0F0B0F0F0F0F0F0F090B030901AE
:101100000F0F0F0F0F0F0F0F0F0F0F0F0F0F0F0FEF
:101110000F0F0F0F0F0F0F0F0F0F0F0F0F0F0F0FDF
:101120000F0B0501030D030B0B0B0B0B0F0F0F0D1B
:1011300005030D0D0507070D05050B0B0B010B0D29
:101140000505050705070707050B0D05070101053F
:10115000050505070B05050505050D07070D050F19
:101160000B03030909090B09030F0F050B01030BFF
:1011700003090909010505050505010B0B0B030111
:101200000F0F0F0F0F0F0F0F0F0F0F0F0F0F0F0FEE
:101210000F0F0F0F0F0F0F0F0F0F0F0F0F0F0F0FDE
:101220000F0B0F05090B010F0B0B05010F010F0B26
:10123000050B0B0B0103010B01010F0F070F0D0B2A
:101240000101030705010101010B0D03070501055C
:101250000305010B0B0505010B0B0B070B0D0F0F06
:101260000F09050705050105050B0D030B01050514
:10127000050507030B0505010B0509070F0D0F01F8
:101300000F0F0F0F0F0F0F0F0F0F0F0F0F0F0F0FED
:101310000F0F0F0F0F0F0F0F0F0F0F0F0F0F0F0FDD
:101320000F0F0F010307050F0B0B0F0B0B0F0F0711
:10133000050B070D0D0D0507050D0B0B0B010B0F15
:101340000705050705070705050B0505070505053D
:101350000701030D0B050B01050B07070D0D0F0F03
:101360000F05050705030B01050B0D030B01050513
:10137000050507090B0505010B09030B0B0B0F01F5
:101400000F0F0F0F0F0F0F0F0F0F0F0F0F0F0F0FEC
:101410000F0F0F0F0F0F0F0F0F0F0F0F0F0F0F0FDC
:101420000F0B0F050B0D090F0D070F0F070F0B0704
:10143000030B01030D03010701030F070D0F070B3A
:10144000090503090301070905010B050105050B42
:10145000070905030B090B05050B01010F010F011E
:101460000F01030909090B0D050B05050105050B06
:101470000309070309090B01050D01090B030F01FE
:101500000F0F0F0F0F0F0F0F0F0F0F0F0F0F0F0FEB
:101510000F0F0F0F0F0F0F0F0F0F0F0F0F0F0F0FDB
:101520000F0F0F0F0F0F0F0F0F0F0F0F0F0F0F0FCB
:101530000F0F0F0F0F0F0F0F0F0F0F0F0F0F0F0FBB
:101540000F0F0F0F0F0F0F0F0F0F0F0F0F0F0F0FAB
:101550000F0F0F0F0F0F0F0F0F0F0F0F0F0F0F0F9B
:101560000F0F0F0F0F0F0F0B0F0F0B0F0F0F0F0F93
:10157000070D0F0F0F0F0F0F0F0B0F0F0F0F0F0F89
:10160000FFFFFFFFFFFFFFFFFFFFFFFFFFFFFFFFEA
:10161000FFFFFFFFFFFFFFFFFFFFFFFFFFFFFFFFDA
:10162000FFFFFFFFFFFFFFFFFFFFFFFFFFFFFFFFCA
:10163000FFFFFFFFFFFFFFFFFFFFFFFFFFFFFFFFBA
:10164000FFFFFFFFFFFFFFFFFFFFFFFFFFFFFFFFAA
:10165000FFFFFFFFFFFFFFFFFFFFFFFFFFFFFFFF9A
:10166000FFFFFFFFFFFFFFFFFFFFFFFFFFFFFFFF8A
:10167000FFFFFFFFFFFFFFFFFFFFFFFFFFFFFFFF7A
:00000001FF
